{
  "contractName": "Identity",
  "abi": [
    {
      "constant": true,
      "inputs": [],
      "name": "MANAGEMENT_KEY",
      "outputs": [
        {
          "name": "",
          "type": "uint256"
        }
      ],
      "payable": false,
      "stateMutability": "view",
      "type": "function"
    },
    {
      "constant": true,
      "inputs": [],
      "name": "servicesCount",
      "outputs": [
        {
          "name": "",
          "type": "uint256"
        }
      ],
      "payable": false,
      "stateMutability": "view",
      "type": "function"
    },
    {
      "constant": true,
      "inputs": [
        {
          "name": "",
          "type": "bytes32"
        }
      ],
      "name": "servicesByType",
      "outputs": [
        {
          "name": "",
          "type": "string"
        }
      ],
      "payable": false,
      "stateMutability": "view",
      "type": "function"
    },
    {
      "constant": true,
      "inputs": [],
      "name": "ECDSA",
      "outputs": [
        {
          "name": "",
          "type": "uint256"
        }
      ],
      "payable": false,
      "stateMutability": "view",
      "type": "function"
    },
    {
      "constant": true,
      "inputs": [
        {
          "name": "",
          "type": "bytes32"
        }
      ],
      "name": "indexOfServiceType",
      "outputs": [
        {
          "name": "",
          "type": "uint256"
        }
      ],
      "payable": false,
      "stateMutability": "view",
      "type": "function"
    },
    {
      "constant": true,
      "inputs": [],
      "name": "ACTION_KEY",
      "outputs": [
        {
          "name": "",
          "type": "uint256"
        }
      ],
      "payable": false,
      "stateMutability": "view",
      "type": "function"
    },
    {
      "constant": true,
      "inputs": [],
      "name": "ETH_ADDR",
      "outputs": [
        {
          "name": "",
          "type": "uint256"
        }
      ],
      "payable": false,
      "stateMutability": "view",
      "type": "function"
    },
    {
      "constant": false,
      "inputs": [],
      "name": "destroy",
      "outputs": [],
      "payable": false,
      "stateMutability": "nonpayable",
      "type": "function"
    },
    {
      "constant": true,
      "inputs": [],
      "name": "owner",
      "outputs": [
        {
          "name": "",
          "type": "address"
        }
      ],
      "payable": false,
      "stateMutability": "view",
      "type": "function"
    },
    {
      "constant": true,
      "inputs": [],
      "name": "ENCRYPTION_KEY",
      "outputs": [
        {
          "name": "",
          "type": "uint256"
        }
      ],
      "payable": false,
      "stateMutability": "view",
      "type": "function"
    },
    {
      "constant": true,
      "inputs": [],
      "name": "RSA",
      "outputs": [
        {
          "name": "",
          "type": "uint256"
        }
      ],
      "payable": false,
      "stateMutability": "view",
      "type": "function"
    },
    {
      "constant": true,
      "inputs": [
        {
          "name": "",
          "type": "uint256"
        }
      ],
      "name": "services",
      "outputs": [
        {
          "name": "",
          "type": "bytes32"
        }
      ],
      "payable": false,
      "stateMutability": "view",
      "type": "function"
    },
    {
      "constant": true,
      "inputs": [],
      "name": "CLAIM_SIGNER_KEY",
      "outputs": [
        {
          "name": "",
          "type": "uint256"
        }
      ],
      "payable": false,
      "stateMutability": "view",
      "type": "function"
    },
    {
      "constant": true,
      "inputs": [
        {
          "name": "",
          "type": "bytes32"
        }
      ],
      "name": "keys",
      "outputs": [
        {
          "name": "key",
          "type": "address"
        },
        {
          "name": "keyType",
          "type": "uint256"
        },
        {
          "name": "scheme",
          "type": "uint256"
        }
      ],
      "payable": false,
      "stateMutability": "view",
      "type": "function"
    },
    {
      "constant": false,
      "inputs": [
        {
          "name": "newOwner",
          "type": "address"
        }
      ],
      "name": "transferOwnership",
      "outputs": [],
      "payable": false,
      "stateMutability": "nonpayable",
      "type": "function"
    },
    {
      "constant": false,
      "inputs": [
        {
          "name": "_recipient",
          "type": "address"
        }
      ],
      "name": "destroyAndSend",
      "outputs": [],
      "payable": false,
      "stateMutability": "nonpayable",
      "type": "function"
    },
    {
      "inputs": [
        {
          "name": "id_owner",
          "type": "address"
        }
      ],
      "payable": false,
      "stateMutability": "nonpayable",
      "type": "constructor"
    },
    {
      "payable": true,
      "stateMutability": "payable",
      "type": "fallback"
    },
    {
      "anonymous": false,
      "inputs": [
        {
          "indexed": false,
          "name": "amount",
          "type": "uint256"
        },
        {
          "indexed": false,
          "name": "sender",
          "type": "address"
        }
      ],
      "name": "ReceivedETH",
      "type": "event"
    },
    {
      "anonymous": false,
      "inputs": [
        {
          "indexed": false,
          "name": "amount",
          "type": "uint256"
        },
        {
          "indexed": false,
          "name": "sender",
          "type": "address"
        },
        {
          "indexed": false,
          "name": "token",
          "type": "address"
        }
      ],
      "name": "ReceivedERC20",
      "type": "event"
    },
    {
      "anonymous": false,
      "inputs": [
        {
          "indexed": true,
          "name": "previousOwner",
          "type": "address"
        },
        {
          "indexed": true,
          "name": "newOwner",
          "type": "address"
        }
      ],
      "name": "OwnershipTransferred",
      "type": "event"
    },
    {
      "anonymous": false,
      "inputs": [
        {
          "indexed": false,
          "name": "_type",
          "type": "bytes32"
        }
      ],
      "name": "ServiceAdded",
      "type": "event"
    },
    {
      "anonymous": false,
      "inputs": [
        {
          "indexed": false,
          "name": "_type",
          "type": "bytes32"
        }
      ],
      "name": "ServiceRemoved",
      "type": "event"
    },
    {
      "anonymous": false,
      "inputs": [
        {
          "indexed": false,
          "name": "_type",
          "type": "bytes32"
        }
      ],
      "name": "ServiceUpdated",
      "type": "event"
    },
    {
      "anonymous": false,
      "inputs": [
        {
          "indexed": true,
          "name": "key",
          "type": "address"
        },
        {
          "indexed": true,
          "name": "keyType",
          "type": "uint256"
        }
      ],
      "name": "KeyAdded",
      "type": "event"
    },
    {
      "anonymous": false,
      "inputs": [
        {
          "indexed": true,
          "name": "key",
          "type": "address"
        },
        {
          "indexed": true,
          "name": "keyType",
          "type": "uint256"
        }
      ],
      "name": "KeyRemoved",
      "type": "event"
    },
    {
      "constant": false,
      "inputs": [
        {
          "name": "_key",
          "type": "address"
        },
        {
          "name": "_type",
          "type": "uint256"
        },
        {
          "name": "_scheme",
          "type": "uint256"
        }
      ],
      "name": "addKey",
      "outputs": [
        {
          "name": "",
          "type": "bool"
        }
      ],
      "payable": false,
      "stateMutability": "nonpayable",
      "type": "function"
    },
    {
      "constant": true,
      "inputs": [
        {
          "name": "_key",
          "type": "address"
        },
        {
          "name": "_type",
          "type": "uint256"
        }
      ],
      "name": "getKey",
      "outputs": [
        {
          "name": "",
          "type": "address"
        },
        {
          "name": "",
          "type": "uint256"
        },
        {
          "name": "",
          "type": "uint256"
        }
      ],
      "payable": false,
      "stateMutability": "view",
      "type": "function"
    },
    {
      "constant": false,
      "inputs": [
        {
          "name": "_key",
          "type": "address"
        },
        {
          "name": "_type",
          "type": "uint256"
        }
      ],
      "name": "removeKey",
      "outputs": [
        {
          "name": "",
          "type": "bool"
        }
      ],
      "payable": false,
      "stateMutability": "nonpayable",
      "type": "function"
    },
    {
      "constant": false,
      "inputs": [
        {
          "name": "_type",
          "type": "bytes32"
        },
        {
          "name": "_endpoint",
          "type": "string"
        }
      ],
      "name": "addService",
      "outputs": [
        {
          "name": "",
          "type": "bool"
        }
      ],
      "payable": false,
      "stateMutability": "nonpayable",
      "type": "function"
    },
    {
      "constant": true,
      "inputs": [
        {
          "name": "_type",
          "type": "bytes32"
        }
      ],
      "name": "getServiceByType",
      "outputs": [
        {
          "name": "",
          "type": "string"
        }
      ],
      "payable": false,
      "stateMutability": "view",
      "type": "function"
    },
    {
      "constant": false,
      "inputs": [
        {
          "name": "_type",
          "type": "bytes32"
        }
      ],
      "name": "removeService",
      "outputs": [
        {
          "name": "",
          "type": "bool"
        }
      ],
      "payable": false,
      "stateMutability": "nonpayable",
      "type": "function"
    },
    {
      "constant": false,
      "inputs": [
        {
          "name": "amount",
          "type": "uint256"
        }
      ],
      "name": "withdrawEth",
      "outputs": [],
      "payable": false,
      "stateMutability": "nonpayable",
      "type": "function"
    },
    {
      "constant": false,
      "inputs": [
        {
          "name": "amount",
          "type": "uint256"
        },
        {
          "name": "tokenAddress",
          "type": "address"
        }
      ],
      "name": "withdrawERC20",
      "outputs": [],
      "payable": false,
      "stateMutability": "nonpayable",
      "type": "function"
    }
  ],
  "bytecode": "0x60606040527f302e312e31000000000000000000000000000000000000000000000000000000600660006101000a8154816fffffffffffffffffffffffffffffffff021916908370010000000000000000000000000000000090040217905550341561006a57600080fd5b604051602080611e7f8339810160405280805190602001909190505033600560006101000a81548173ffffffffffffffffffffffffffffffffffffffff021916908373ffffffffffffffffffffffffffffffffffffffff1602179055506060604051908101604052808273ffffffffffffffffffffffffffffffffffffffff168152602001600181526020016003815250600080836001604051808373ffffffffffffffffffffffffffffffffffffffff1673ffffffffffffffffffffffffffffffffffffffff166c010000000000000000000000000281526014018281526020019250505060405180910390206000191660001916815260200190815260200160002060008201518160000160006101000a81548173ffffffffffffffffffffffffffffffffffffffff021916908373ffffffffffffffffffffffffffffffffffffffff160217905550602082015181600101556040820151816002015590505050611ca3806101dc6000396000f30060606040526004361061013e576000357c0100000000000000000000000000000000000000000000000000000000900463ffffffff168063058b316c146101ab5780630bf08787146101d457806311c3cec9146101fd5780631ecbfcea1461029d57806338a062a1146102c65780634ede626c146103015780635e52ba73146103645780636726dac6146103e657806375e5598c146104865780637753f47b146104af57806381dd7b8e146104d857806383197ef0146105325780638da5cb5b146105475780639e140cc81461059c578063a24c1bd5146105c5578063a369f72e146105ee578063c20938e01461067e578063c22c4f43146106c0578063c311d049146106ff578063c670218714610722578063d3884c3f1461074b578063dde5b7a11461078a578063f2fde38b146107ff578063f5074f4114610838575b7f8896b78bee3425f51a871baaeba673d465e036b59282c65dece71c53e9078b623433604051808381526020018273ffffffffffffffffffffffffffffffffffffffff1673ffffffffffffffffffffffffffffffffffffffff1681526020019250505060405180910390a1005b34156101b657600080fd5b6101be610871565b6040518082815260200191505060405180910390f35b34156101df57600080fd5b6101e7610876565b6040518082815260200191505060405180910390f35b341561020857600080fd5b61022260048080356000191690602001909190505061087c565b6040518080602001828103825283818151815260200191508051906020019080838360005b83811015610262578082015181840152602081019050610247565b50505050905090810190601f16801561028f5780820380516001836020036101000a031916815260200191505b509250505060405180910390f35b34156102a857600080fd5b6102b061092c565b6040518082815260200191505060405180910390f35b34156102d157600080fd5b6102eb600480803560001916906020019091905050610931565b6040518082815260200191505060405180910390f35b341561030c57600080fd5b61034a600480803573ffffffffffffffffffffffffffffffffffffffff16906020019091908035906020019091908035906020019091905050610949565b604051808215151515815260200191505060405180910390f35b341561036f57600080fd5b6103cc60048080356000191690602001909190803590602001908201803590602001908080601f01602080910402602001604051908101604052809392919081815260200183838082843782019150505050505091905050610b57565b604051808215151515815260200191505060405180910390f35b34156103f157600080fd5b61040b600480803560001916906020019091905050610db5565b6040518080602001828103825283818151815260200191508051906020019080838360005b8381101561044b578082015181840152602081019050610430565b50505050905090810190601f1680156104785780820380516001836020036101000a031916815260200191505b509250505060405180910390f35b341561049157600080fd5b610499610f47565b6040518082815260200191505060405180910390f35b34156104ba57600080fd5b6104c2610f4c565b6040518082815260200191505060405180910390f35b34156104e357600080fd5b610518600480803573ffffffffffffffffffffffffffffffffffffffff16906020019091908035906020019091905050610f51565b604051808215151515815260200191505060405180910390f35b341561053d57600080fd5b61054561110e565b005b341561055257600080fd5b61055a6111a5565b604051808273ffffffffffffffffffffffffffffffffffffffff1673ffffffffffffffffffffffffffffffffffffffff16815260200191505060405180910390f35b34156105a757600080fd5b6105af6111cb565b6040518082815260200191505060405180910390f35b34156105d057600080fd5b6105d86111d0565b6040518082815260200191505060405180910390f35b34156105f957600080fd5b61062e600480803573ffffffffffffffffffffffffffffffffffffffff169060200190919080359060200190919050506111d5565b604051808473ffffffffffffffffffffffffffffffffffffffff1673ffffffffffffffffffffffffffffffffffffffff168152602001838152602001828152602001935050505060405180910390f35b341561068957600080fd5b6106be600480803590602001909190803573ffffffffffffffffffffffffffffffffffffffff16906020019091905050611321565b005b34156106cb57600080fd5b6106e160048080359060200190919050506114dd565b60405180826000191660001916815260200191505060405180910390f35b341561070a57600080fd5b6107206004808035906020019091905050611501565b005b341561072d57600080fd5b610735611626565b6040518082815260200191505060405180910390f35b341561075657600080fd5b61077060048080356000191690602001909190505061162b565b604051808215151515815260200191505060405180910390f35b341561079557600080fd5b6107af60048080356000191690602001909190505061186f565b604051808473ffffffffffffffffffffffffffffffffffffffff1673ffffffffffffffffffffffffffffffffffffffff168152602001838152602001828152602001935050505060405180910390f35b341561080a57600080fd5b610836600480803573ffffffffffffffffffffffffffffffffffffffff169060200190919050506118b9565b005b341561084357600080fd5b61086f600480803573ffffffffffffffffffffffffffffffffffffffff16906020019091905050611a11565b005b600181565b60045481565b60016020528060005260406000206000915090508054600181600116156101000203166002900480601f0160208091040260200160405190810160405280929190818152602001828054600181600116156101000203166002900480156109245780601f106108f957610100808354040283529160200191610924565b820191906000526020600020905b81548152906001019060200180831161090757829003601f168201915b505050505081565b600381565b60026020528060005260406000206000915090505481565b600080600080336001604051808373ffffffffffffffffffffffffffffffffffffffff1673ffffffffffffffffffffffffffffffffffffffff166c010000000000000000000000000281526014018281526020019250505060405180910390206000191660001916815260200190815260200160002060000160009054906101000a900473ffffffffffffffffffffffffffffffffffffffff1673ffffffffffffffffffffffffffffffffffffffff1614151515610a0657600080fd5b6060604051908101604052808573ffffffffffffffffffffffffffffffffffffffff168152602001848152602001838152506000808686604051808373ffffffffffffffffffffffffffffffffffffffff1673ffffffffffffffffffffffffffffffffffffffff166c010000000000000000000000000281526014018281526020019250505060405180910390206000191660001916815260200190815260200160002060008201518160000160006101000a81548173ffffffffffffffffffffffffffffffffffffffff021916908373ffffffffffffffffffffffffffffffffffffffff1602179055506020820151816001015560408201518160020155905050828473ffffffffffffffffffffffffffffffffffffffff167f7d958a859734aa5212d2568f8700fe77619bc93d5b08abf1445585bac8bff60660405160405180910390a3600190509392505050565b6000610b61611b59565b6000806000336001604051808373ffffffffffffffffffffffffffffffffffffffff1673ffffffffffffffffffffffffffffffffffffffff166c010000000000000000000000000281526014018281526020019250505060405180910390206000191660001916815260200190815260200160002060000160009054906101000a900473ffffffffffffffffffffffffffffffffffffffff1673ffffffffffffffffffffffffffffffffffffffff1614151515610c1d57600080fd5b6001600085600019166000191681526020019081526020016000208054600181600116156101000203166002900480601f016020809104026020016040519081016040528092919081815260200182805460018160011615610100020316600290048015610ccc5780601f10610ca157610100808354040283529160200191610ccc565b820191906000526020600020905b815481529060010190602001808311610caf57829003601f168201915b50505050509050600081511415610d3b5760038054806001018281610cf19190611b6d565b916000526020600020900160008690919091509060001916905550600454600260008660001916600019168152602001908152602001600020819055506001600454016004819055505b826001600086600019166000191681526020019081526020016000209080519060200190610d6a929190611b99565b507f8f531e5ede07d5741fd086bb787ed399a64704eb757b87cc80cf6635b274e5b58460405180826000191660001916815260200191505060405180910390a1600191505092915050565b610dbd611c19565b610dc5611b59565b6001600084600019166000191681526020019081526020016000208054600181600116156101000203166002900480601f016020809104026020016040519081016040528092919081815260200182805460018160011615610100020316600290048015610e745780601f10610e4957610100808354040283529160200191610e74565b820191906000526020600020905b815481529060010190602001808311610e5757829003601f168201915b5050505050905060008151111515610e8b57600080fd5b6001600084600019166000191681526020019081526020016000208054600181600116156101000203166002900480601f016020809104026020016040519081016040528092919081815260200182805460018160011615610100020316600290048015610f3a5780601f10610f0f57610100808354040283529160200191610f3a565b820191906000526020600020905b815481529060010190602001808311610f1d57829003601f168201915b5050505050915050919050565b600281565b600181565b6000806000806000336001604051808373ffffffffffffffffffffffffffffffffffffffff1673ffffffffffffffffffffffffffffffffffffffff166c010000000000000000000000000281526014018281526020019250505060405180910390206000191660001916815260200190815260200160002060000160009054906101000a900473ffffffffffffffffffffffffffffffffffffffff1673ffffffffffffffffffffffffffffffffffffffff161415151561101057600080fd5b8383604051808373ffffffffffffffffffffffffffffffffffffffff1673ffffffffffffffffffffffffffffffffffffffff166c0100000000000000000000000002815260140182815260200192505050604051809103902090506000808260001916600019168152602001908152602001600020600080820160006101000a81549073ffffffffffffffffffffffffffffffffffffffff0219169055600182016000905560028201600090555050828473ffffffffffffffffffffffffffffffffffffffff167fe96ba5805e91ce4b5225d90ad1aac15c207472188f51f24025974341360f0f8a60405160405180910390a3600191505092915050565b600560009054906101000a900473ffffffffffffffffffffffffffffffffffffffff1673ffffffffffffffffffffffffffffffffffffffff163373ffffffffffffffffffffffffffffffffffffffff1614151561116a57600080fd5b600560009054906101000a900473ffffffffffffffffffffffffffffffffffffffff1673ffffffffffffffffffffffffffffffffffffffff16ff5b600560009054906101000a900473ffffffffffffffffffffffffffffffffffffffff1681565b600481565b600281565b6000806000808585604051808373ffffffffffffffffffffffffffffffffffffffff1673ffffffffffffffffffffffffffffffffffffffff166c0100000000000000000000000002815260140182815260200192505050604051809103902090506000806000836000191660001916815260200190815260200160002060000160009054906101000a900473ffffffffffffffffffffffffffffffffffffffff1673ffffffffffffffffffffffffffffffffffffffff161415151561129957600080fd5b600080826000191660001916815260200190815260200160002060000160009054906101000a900473ffffffffffffffffffffffffffffffffffffffff16600080836000191660001916815260200190815260200160002060010154600080846000191660001916815260200190815260200160002060020154935093509350509250925092565b600080600080336001604051808373ffffffffffffffffffffffffffffffffffffffff1673ffffffffffffffffffffffffffffffffffffffff166c010000000000000000000000000281526014018281526020019250505060405180910390206000191660001916815260200190815260200160002060000160009054906101000a900473ffffffffffffffffffffffffffffffffffffffff1673ffffffffffffffffffffffffffffffffffffffff16141515156113de57600080fd5b8190508073ffffffffffffffffffffffffffffffffffffffff166370a08231306000604051602001526040518263ffffffff167c0100000000000000000000000000000000000000000000000000000000028152600401808273ffffffffffffffffffffffffffffffffffffffff1673ffffffffffffffffffffffffffffffffffffffff168152602001915050602060405180830381600087803b151561148457600080fd5b6102c65a03f1151561149557600080fd5b5050506040518051905083111515156114ad57600080fd5b6114d833848373ffffffffffffffffffffffffffffffffffffffff16611a869092919063ffffffff16565b505050565b6003818154811015156114ec57fe5b90600052602060002090016000915090505481565b6000806000336001604051808373ffffffffffffffffffffffffffffffffffffffff1673ffffffffffffffffffffffffffffffffffffffff166c010000000000000000000000000281526014018281526020019250505060405180910390206000191660001916815260200190815260200160002060000160009054906101000a900473ffffffffffffffffffffffffffffffffffffffff1673ffffffffffffffffffffffffffffffffffffffff16141515156115bd57600080fd5b3073ffffffffffffffffffffffffffffffffffffffff163181111515156115e357600080fd5b3373ffffffffffffffffffffffffffffffffffffffff166108fc829081150290604051600060405180830381858888f19350505050151561162357600080fd5b50565b600381565b6000611635611b59565b600080600080336001604051808373ffffffffffffffffffffffffffffffffffffffff1673ffffffffffffffffffffffffffffffffffffffff166c010000000000000000000000000281526014018281526020019250505060405180910390206000191660001916815260200190815260200160002060000160009054906101000a900473ffffffffffffffffffffffffffffffffffffffff1673ffffffffffffffffffffffffffffffffffffffff16141515156116f257600080fd5b6001600085600019166000191681526020019081526020016000208054600181600116156101000203166002900480601f0160208091040260200160405190810160405280929190818152602001828054600181600116156101000203166002900480156117a15780601f10611776576101008083540402835291602001916117a1565b820191906000526020600020905b81548152906001019060200180831161178457829003601f168201915b50505050509150600082511115156117b857600080fd5b602060405190810160405280600081525060016000866000191660001916815260200190815260200160002090805190602001906117f7929190611b99565b50600260008560001916600019168152602001908152602001600020549050600360016004540381548110151561182a57fe5b90600052602060002090015460038281548110151561184557fe5b90600052602060002090018160001916905550600160045403600481905550600192505050919050565b60006020528060005260406000206000915090508060000160009054906101000a900473ffffffffffffffffffffffffffffffffffffffff16908060010154908060020154905083565b600560009054906101000a900473ffffffffffffffffffffffffffffffffffffffff1673ffffffffffffffffffffffffffffffffffffffff163373ffffffffffffffffffffffffffffffffffffffff1614151561191557600080fd5b600073ffffffffffffffffffffffffffffffffffffffff168173ffffffffffffffffffffffffffffffffffffffff161415151561195157600080fd5b8073ffffffffffffffffffffffffffffffffffffffff16600560009054906101000a900473ffffffffffffffffffffffffffffffffffffffff1673ffffffffffffffffffffffffffffffffffffffff167f8be0079c531659141344cd1fd0a4f28419497f9722a3daafe3b4186f6b6457e060405160405180910390a380600560006101000a81548173ffffffffffffffffffffffffffffffffffffffff021916908373ffffffffffffffffffffffffffffffffffffffff16021790555050565b600560009054906101000a900473ffffffffffffffffffffffffffffffffffffffff1673ffffffffffffffffffffffffffffffffffffffff163373ffffffffffffffffffffffffffffffffffffffff16141515611a6d57600080fd5b8073ffffffffffffffffffffffffffffffffffffffff16ff5b8273ffffffffffffffffffffffffffffffffffffffff1663a9059cbb83836000604051602001526040518363ffffffff167c0100000000000000000000000000000000000000000000000000000000028152600401808373ffffffffffffffffffffffffffffffffffffffff1673ffffffffffffffffffffffffffffffffffffffff16815260200182815260200192505050602060405180830381600087803b1515611b3157600080fd5b6102c65a03f11515611b4257600080fd5b505050604051805190501515611b5457fe5b505050565b602060405190810160405280600081525090565b815481835581811511611b9457818360005260206000209182019101611b939190611c2d565b5b505050565b828054600181600116156101000203166002900490600052602060002090601f016020900481019282601f10611bda57805160ff1916838001178555611c08565b82800160010185558215611c08579182015b82811115611c07578251825591602001919060010190611bec565b5b509050611c159190611c52565b5090565b602060405190810160405280600081525090565b611c4f91905b80821115611c4b576000816000905550600101611c33565b5090565b90565b611c7491905b80821115611c70576000816000905550600101611c58565b5090565b905600a165627a7a72305820f40deb9d62f84f7eb6418655917bac8fa8e6756c875e6d27b8733cf8cbd4ae8d0029",
  "source": "pragma solidity ^0.4.19;\n\nimport './interfaces/ERC725b.sol';\nimport './interfaces/ServiceCollection.sol';\n\n\nimport 'zeppelin-solidity/contracts/token/ERC20/ERC20.sol';\nimport 'zeppelin-solidity/contracts/ownership/Ownable.sol';\nimport 'zeppelin-solidity/contracts/token/ERC20/SafeERC20.sol';\nimport 'zeppelin-solidity/contracts/lifecycle/Destructible.sol';\n\n/**\n * @title Identity\n * @dev Contract that represents an identity\n */\ncontract Identity is ERC725b, ServiceCollection, Ownable, Destructible {\n    using SafeERC20 for ERC20;\n\n    bytes16 version = \"0.1.1\";\n\n    event ReceivedETH(uint256 amount, address sender);\n    event ReceivedERC20(uint256 amount, address sender, address token);\n\n    modifier onlyManager () {\n        require(keys[keccak256(msg.sender, MANAGEMENT_KEY)].key != 0);\n        _;\n    }\n\n    /**\n     * @dev Identity Constructor. Assigns a Management key to the creator.\n     * @param id_owner — The creator of this identity.\n     */\n    function Identity(address id_owner) public {\n        // Adds sender as a management key\n        keys[keccak256(id_owner, MANAGEMENT_KEY)] = Key(id_owner, MANAGEMENT_KEY, ECDSA);\n    }\n\n    /**\n     * @dev Fallback function. Allows the contract to receive ETH payments\n     */\n    function()\n        public\n        payable\n    {\n        ReceivedETH(msg.value, msg.sender);\n    }\n\n    /**\n     * @dev Adds a new key (address) to the identity\n     * @param _key — The key (address) to be added\n     * @param _type — The key type (Management, Action, etc)\n     * @param _scheme — The scheme to be used for verifying this key (ECDSA, RSA, etc)\n     */\n    function addKey(address _key, uint256 _type, uint256 _scheme)\n        onlyManager\n        public\n        returns (bool)\n    {\n        keys[keccak256(_key, _type)] = Key(_key, _type, _scheme);\n        KeyAdded(_key, _type);\n\n        return true;\n    }\n\n    /**\n     * @dev Retrieves a key by its address and type\n     * @param _key — The key (address) to be retrieved\n     * @param _type — The key type (Management, Action, etc)\n     */\n    function getKey(address _key, uint256 _type)\n        public\n        view\n        returns (address, uint256, uint256)\n    {\n        bytes32 index = keccak256(_key, _type);\n        require(keys[index].key != 0);\n\n        return (keys[index].key, keys[index].keyType, keys[index].scheme);\n    }\n\n    /**\n     * @dev Removes a key (doable only by addresses added of the MANAGEMENT type)\n     * @param _key — The key (address) to be removed\n     * @param _type — The key type (Management, Action, etc)\n     */\n    function removeKey(address _key, uint256 _type)\n        onlyManager\n        public\n        returns (bool)\n    {\n        bytes32 index = keccak256(_key, _type);\n        delete keys[index];\n        KeyRemoved(_key, _type);\n\n        return true;\n    }\n\n    /**\n     * @dev Adds a service endpoint to the identity\n     * @param _type — The service type (short string)\n     * @param _endpoint — The service endpoint URI\n     */\n    function addService(bytes32 _type, string _endpoint)\n        public\n        onlyManager\n        returns (bool)\n    {\n        bytes memory serviceBytes = bytes(servicesByType[_type]);\n        if (serviceBytes.length == 0) {\n            // service of such type doesn't exist yet\n            services.push(_type);\n            indexOfServiceType[_type] = servicesCount;\n            servicesCount = servicesCount + 1;\n        }\n        servicesByType[_type] = _endpoint;\n        ServiceAdded(_type);\n\n        return true;\n    }\n\n    /**\n     * @dev Gets a service endpoint given a type\n     * @param _type — The service type (short string) E.g. \"HubService\"\n     */\n    function getServiceByType(bytes32 _type)\n        public\n        view\n        returns (string)\n    {\n        bytes memory serviceBytes = bytes(servicesByType[_type]);\n        require(serviceBytes.length > 0);\n\n        return servicesByType[_type];\n    }\n\n    /**\n     * @dev Removes a service endpoint of the given type\n     * @param _type — The service type (short string) E.g. \"HubService\"\n     */\n    function removeService(bytes32 _type)\n        public\n        onlyManager\n        returns (bool)\n    {\n        bytes memory serviceBytes = bytes(servicesByType[_type]);\n        require(serviceBytes.length > 0);\n\n        servicesByType[_type] = \"\";\n        uint256 index = indexOfServiceType[_type];\n        // What to do with the indexOfServiceType of the deleted service????\n        services[index] = services[servicesCount - 1];    // moves last element to deleted slot\n        servicesCount = servicesCount - 1;\n\n        return true;\n    }\n\n    /**\n     * @dev Withdraws ETH held by the identity contract\n     * @param amount — The amount of ETH to be withdrawn\n     */\n    function withdrawEth(uint256 amount)\n        public\n        onlyManager\n    {\n        require(amount <= this.balance);\n        msg.sender.transfer(amount);\n    }\n\n    /**\n     * @dev Withdraws ERC20 tokens held by the identity contract\n     * @param amount — The amount of tokens to be withdrawn\n     */\n    function withdrawERC20(uint256 amount, address tokenAddress)\n        public\n        onlyManager\n    {\n        ERC20 token = ERC20(tokenAddress);      // does this work?\n        // validate this is an ERC20 address\n        require(amount <= token.balanceOf(this));\n        token.safeTransfer(msg.sender, amount);\n    }\n}\n",
  "sourcePath": "/home/carlos/work/dev/github/cbruguera/identity-contracts/contracts/Identity.sol",
  "compiler": {
    "name": "solc",
    "version": "0.4.19+commit.c4cbbb05.Emscripten.clang"
  },
  "schemaVersion": "2.0.0",
  "updatedAt": "2018-04-11T03:22:04.925Z"
}