{
  "contractName": "NameRegistry",
  "abi": [
    {
      "constant": true,
      "inputs": [],
      "name": "staking",
      "outputs": [
        {
          "name": "",
          "type": "address"
        }
      ],
      "payable": false,
      "stateMutability": "view",
      "type": "function"
    },
    {
      "constant": true,
      "inputs": [],
      "name": "owner",
      "outputs": [
        {
          "name": "",
          "type": "address"
        }
      ],
      "payable": false,
      "stateMutability": "view",
      "type": "function"
    },
    {
      "constant": false,
      "inputs": [
        {
          "name": "newOwner",
          "type": "address"
        }
      ],
      "name": "transferOwnership",
      "outputs": [],
      "payable": false,
      "stateMutability": "nonpayable",
      "type": "function"
    },
    {
      "inputs": [
        {
          "name": "stakingAddress",
          "type": "address"
        }
      ],
      "payable": false,
      "stateMutability": "nonpayable",
      "type": "constructor"
    },
    {
      "anonymous": false,
      "inputs": [
        {
          "indexed": false,
          "name": "name",
          "type": "bytes32"
        },
        {
          "indexed": false,
          "name": "_address",
          "type": "address"
        }
      ],
      "name": "NameRegistered",
      "type": "event"
    },
    {
      "anonymous": false,
      "inputs": [
        {
          "indexed": true,
          "name": "previousOwner",
          "type": "address"
        },
        {
          "indexed": true,
          "name": "newOwner",
          "type": "address"
        }
      ],
      "name": "OwnershipTransferred",
      "type": "event"
    },
    {
      "constant": true,
      "inputs": [],
      "name": "getStakingServiceID",
      "outputs": [
        {
          "name": "",
          "type": "bytes32"
        }
      ],
      "payable": false,
      "stateMutability": "view",
      "type": "function"
    },
    {
      "constant": true,
      "inputs": [
        {
          "name": "name",
          "type": "bytes32"
        }
      ],
      "name": "nameExists",
      "outputs": [
        {
          "name": "",
          "type": "bool"
        }
      ],
      "payable": false,
      "stateMutability": "view",
      "type": "function"
    },
    {
      "constant": false,
      "inputs": [
        {
          "name": "name",
          "type": "bytes32"
        }
      ],
      "name": "registerName",
      "outputs": [],
      "payable": false,
      "stateMutability": "nonpayable",
      "type": "function"
    },
    {
      "constant": true,
      "inputs": [
        {
          "name": "name",
          "type": "bytes32"
        }
      ],
      "name": "resolveName",
      "outputs": [
        {
          "name": "",
          "type": "address"
        }
      ],
      "payable": false,
      "stateMutability": "view",
      "type": "function"
    },
    {
      "constant": false,
      "inputs": [
        {
          "name": "minimum",
          "type": "uint256"
        }
      ],
      "name": "setMinimumStake",
      "outputs": [],
      "payable": false,
      "stateMutability": "nonpayable",
      "type": "function"
    },
    {
      "constant": false,
      "inputs": [
        {
          "name": "period",
          "type": "uint256"
        }
      ],
      "name": "setStakePeriod",
      "outputs": [],
      "payable": false,
      "stateMutability": "nonpayable",
      "type": "function"
    }
  ],
  "bytecode": "0x608060405234801561001057600080fd5b50604051602080610cf283398101806040528101908080519060200190929190505050336000806101000a81548173ffffffffffffffffffffffffffffffffffffffff021916908373ffffffffffffffffffffffffffffffffffffffff16021790555080600160006101000a81548173ffffffffffffffffffffffffffffffffffffffff021916908373ffffffffffffffffffffffffffffffffffffffff16021790555050610c2e806100c46000396000f300608060405260043610610099576000357c0100000000000000000000000000000000000000000000000000000000900463ffffffff168063143dc3f81461009e5780631e6b4c6f146100e7578063233e9903146101145780634cf088d91461014157806351ed918c146101985780638da5cb5b146101cb578063d6da080514610222578063ead6505414610253578063f2fde38b146102c4575b600080fd5b3480156100aa57600080fd5b506100cd6004803603810190808035600019169060200190929190505050610307565b604051808215151515815260200191505060405180910390f35b3480156100f357600080fd5b50610112600480360381019080803590602001909291905050506104ce565b005b34801561012057600080fd5b5061013f600480360381019080803590602001909291905050506105d5565b005b34801561014d57600080fd5b506101566106dc565b604051808273ffffffffffffffffffffffffffffffffffffffff1673ffffffffffffffffffffffffffffffffffffffff16815260200191505060405180910390f35b3480156101a457600080fd5b506101ad610702565b60405180826000191660001916815260200191505060405180910390f35b3480156101d757600080fd5b506101e061075a565b604051808273ffffffffffffffffffffffffffffffffffffffff1673ffffffffffffffffffffffffffffffffffffffff16815260200191505060405180910390f35b34801561022e57600080fd5b50610251600480360381019080803560001916906020019092919050505061077f565b005b34801561025f57600080fd5b506102826004803603810190808035600019169060200190929190505050610a50565b604051808273ffffffffffffffffffffffffffffffffffffffff1673ffffffffffffffffffffffffffffffffffffffff16815260200191505060405180910390f35b3480156102d057600080fd5b50610305600480360381019080803573ffffffffffffffffffffffffffffffffffffffff169060200190929190505050610aad565b005b6000600160009054906101000a900473ffffffffffffffffffffffffffffffffffffffff1673ffffffffffffffffffffffffffffffffffffffff1663a22ccdd560026000856000191660001916815260200190815260200160002060009054906101000a900473ffffffffffffffffffffffffffffffffffffffff1661038b610702565b6040518363ffffffff167c0100000000000000000000000000000000000000000000000000000000028152600401808373ffffffffffffffffffffffffffffffffffffffff1673ffffffffffffffffffffffffffffffffffffffff168152602001826000191660001916815260200192505050602060405180830381600087803b15801561041857600080fd5b505af115801561042c573d6000803e3d6000fd5b505050506040513d602081101561044257600080fd5b810190808051906020019092919050505080156104c75750600073ffffffffffffffffffffffffffffffffffffffff1660026000846000191660001916815260200190815260200160002060009054906101000a900473ffffffffffffffffffffffffffffffffffffffff1673ffffffffffffffffffffffffffffffffffffffff1614155b9050919050565b6000809054906101000a900473ffffffffffffffffffffffffffffffffffffffff1673ffffffffffffffffffffffffffffffffffffffff163373ffffffffffffffffffffffffffffffffffffffff1614151561052957600080fd5b600160009054906101000a900473ffffffffffffffffffffffffffffffffffffffff1673ffffffffffffffffffffffffffffffffffffffff166349ab1073826040518263ffffffff167c010000000000000000000000000000000000000000000000000000000002815260040180828152602001915050600060405180830381600087803b1580156105ba57600080fd5b505af11580156105ce573d6000803e3d6000fd5b5050505050565b6000809054906101000a900473ffffffffffffffffffffffffffffffffffffffff1673ffffffffffffffffffffffffffffffffffffffff163373ffffffffffffffffffffffffffffffffffffffff1614151561063057600080fd5b600160009054906101000a900473ffffffffffffffffffffffffffffffffffffffff1673ffffffffffffffffffffffffffffffffffffffff1663cf6f4af3826040518263ffffffff167c010000000000000000000000000000000000000000000000000000000002815260040180828152602001915050600060405180830381600087803b1580156106c157600080fd5b505af11580156106d5573d6000803e3d6000fd5b5050505050565b600160009054906101000a900473ffffffffffffffffffffffffffffffffffffffff1681565b600030604051808273ffffffffffffffffffffffffffffffffffffffff1673ffffffffffffffffffffffffffffffffffffffff166c010000000000000000000000000281526014019150506040518091039020905090565b6000809054906101000a900473ffffffffffffffffffffffffffffffffffffffff1681565b61078881610307565b1515156107fd576040517f08c379a00000000000000000000000000000000000000000000000000000000081526004018080602001828103825260178152602001807f6e616d6520616c7265616479207265676973746572656400000000000000000081525060200191505060405180910390fd5b600160009054906101000a900473ffffffffffffffffffffffffffffffffffffffff1673ffffffffffffffffffffffffffffffffffffffff1663a22ccdd533610844610702565b6040518363ffffffff167c0100000000000000000000000000000000000000000000000000000000028152600401808373ffffffffffffffffffffffffffffffffffffffff1673ffffffffffffffffffffffffffffffffffffffff168152602001826000191660001916815260200192505050602060405180830381600087803b1580156108d157600080fd5b505af11580156108e5573d6000803e3d6000fd5b505050506040513d60208110156108fb57600080fd5b81019080805190602001909291905050501515610980576040517f08c379a00000000000000000000000000000000000000000000000000000000081526004018080602001828103825260138152602001807f5374616b696e672069732072657175697265640000000000000000000000000081525060200191505060405180910390fd5b3360026000836000191660001916815260200190815260200160002060006101000a81548173ffffffffffffffffffffffffffffffffffffffff021916908373ffffffffffffffffffffffffffffffffffffffff1602179055507f25631d78c8c9e9757c5c8419905e25845aa864284d1df44be777e5fafd2e09f781336040518083600019166000191681526020018273ffffffffffffffffffffffffffffffffffffffff1673ffffffffffffffffffffffffffffffffffffffff1681526020019250505060405180910390a150565b6000610a5b82610307565b15610aa35760026000836000191660001916815260200190815260200160002060009054906101000a900473ffffffffffffffffffffffffffffffffffffffff169050610aa8565b600090505b919050565b6000809054906101000a900473ffffffffffffffffffffffffffffffffffffffff1673ffffffffffffffffffffffffffffffffffffffff163373ffffffffffffffffffffffffffffffffffffffff16141515610b0857600080fd5b600073ffffffffffffffffffffffffffffffffffffffff168173ffffffffffffffffffffffffffffffffffffffff1614151515610b4457600080fd5b8073ffffffffffffffffffffffffffffffffffffffff166000809054906101000a900473ffffffffffffffffffffffffffffffffffffffff1673ffffffffffffffffffffffffffffffffffffffff167f8be0079c531659141344cd1fd0a4f28419497f9722a3daafe3b4186f6b6457e060405160405180910390a3806000806101000a81548173ffffffffffffffffffffffffffffffffffffffff021916908373ffffffffffffffffffffffffffffffffffffffff160217905550505600a165627a7a72305820adf5d5a492be8bb312c31c0f3428b4719155331624acf2e830b910181204c27f0029",
  "source": "pragma solidity ^0.4.23;\n\nimport 'openzeppelin-solidity/contracts/ownership/Ownable.sol';\nimport 'staked-access/contracts/StakingManager.sol';\n\n\ncontract NameRegistry is Ownable {\n\n    StakingManager public staking;\n    mapping(bytes32 => address) private registry;  // should be private!?\n\n    event NameRegistered(bytes32 name, address _address);\n\n    constructor(address stakingAddress) public {\n        staking = StakingManager(stakingAddress);\n    }\n\n    /**\n     *  Returns the staking Service ID associated with this contract.\n     */\n    function getStakingServiceID() public view returns (bytes32){\n        return keccak256(address(this));\n    }\n\n    /**\n     *  Check whether a name is registered or not.\n     *  If a name was registered at some point, but presently there is no stake on it,\n     *  the name is considered to be revoked and thus \"non-existent\"\n     *  @param name - Name string to check for existence\n     */\n    function nameExists(bytes32 name) public view returns(bool) {\n        return staking.hasStakeAboveMinimum(registry[name], getStakingServiceID()) &&\n            registry[name] != address(0);\n    }\n\n    /**\n     *  Registers a new name.\n     *  It requires a stake made by the caller address to the Name Registry Service ID\n     *  If the name already exists (and stake is still holding), caller cannot register.\n     *  @param name - Name to be registered\n     */\n    function registerName(bytes32 name) public {\n        require(!nameExists(name), \"name already registered\");\n        require(staking.hasStakeAboveMinimum(msg.sender, getStakingServiceID()), \"Staking is required\");\n\n        registry[name] = msg.sender;\n\n        emit NameRegistered(name, msg.sender);\n    }\n\n    /**\n     *  Resolves a name to its corresponding address, given that the stake is still holding\n     *  @param name - Name to be resolved\n     */\n    function resolveName(bytes32 name) public view returns(address) {\n        if (nameExists(name)) {\n            return registry[name];\n        } else {\n            return address(0);\n        }\n    }\n\n    /**\n     *  Contract owner can set a custom minimum stake for registering names\n     *  @param minimum - amount of tokens to be set as minimum stake\n     */\n    function setMinimumStake(uint256 minimum) public onlyOwner {\n        staking.setServiceMinimumStake(minimum);\n        // TODO: trigger event\n    }\n\n    /**\n     *  Contract owner can set a custom staking period for locking stakes\n     *  @param period - period to set as minimum stake period (in days)\n     */\n    function setStakePeriod(uint256 period) public onlyOwner {\n        staking.setServiceStakePeriod(period);\n        // TODO: trigger event\n    }\n}\n",
  "sourcePath": "/home/carlos/work/dev/github/cbruguera/selfkey-name-registry/contracts/NameRegistry.sol",
  "compiler": {
    "name": "solc",
    "version": "0.4.23+commit.124ca40d.Emscripten.clang"
  },
  "schemaVersion": "2.0.0",
  "updatedAt": "2018-05-28T10:09:13.322Z"
}